:0610000055EF08F012009C
:101008005B82FACF4FF0FBCF50F0E1CF51F0E2CF47
:1010180052F0D9CF53F0DACF54F0F3CF55F0F4CFE4
:1010280056F0F6CF57F0F7CF58F0F8CF59F0F5CF84
:101038005AF09DB09EA005D021EC22F00FEC22F0D2
:1010480016D09DBA9EAA05D012EC22F073EC23F0BC
:101058000ED09DB89EA803D087EC23F008D0A0BC82
:10106800A1AC03D005EC22F002D00FEC31F05AC04D
:10107800F5FF59C0F8FF58C0F7FF57C0F6FF56C034
:10108800F4FF55C0F3FF54C0DAFF53C0D9FF52C074
:10109800E2FF51C0E1FF50C0FBFF4FC0FAFF5B9277
:0610A800110009EF27F022
:10440700BF7701A19C1200CD801200BA8412002A46
:10441700501200956B1200000195811200010E2ABF
:104427006E010CC06FC0C0FDF01200C06FC0C09F0E
:10443700F01200BCCFC0F0C05112009E9086C0CFD2
:10444700FF85C0CEFF12000001C16F8A9AC1514F8C
:10445700EF22F0C16F8A8A0001C1514FEF22F00DA0
:104467000E72EC24F00A0E72EF24F0C76A210EC612
:104477006EC86AC688C79C1200C06F0001C0B39996
:104487002BC0B79D2B12007A0EBA6E9B0EBB6EBC6B
:104497006A9E9209EF22F0C06FC69EC0C0C9FFC7CF
:1044A700A0FED7C9501200A09C9C0E986E9A8A9ABB
:1044B700929A96A19CA09C9C0C0001C26F8A98C2FC
:1044C70051AF0827EC22F08A881200C051C111D8D9
:1044D700B41200C0C0FBF0C1C0FCF01200C06FC036
:1044E700C0A9FFA69CA69EA68000F000F0A85012C7
:1044F70000C26FB00E0001C2138A98C25127EC2286
:10450700F08A8812000001C26FA60EC2278A98C2DD
:104517005127EC22F08A881200A00E7D6E010EC290
:104527006E080EC16E8E0EC06EC36AC46A1200801A
:104537000E9B6E700ED36E100ED26ED2AEFED7905B
:104547000EB56E900C000EECEC22F0010EECEC2296
:10455700F0020EECEC22F0030EECEF22F0A3942015
:104567005009E1C0C073F0C1C074F0C2C098F00137
:104577000E966F206EA3841200C30EC16F7C0EC20D
:104587006FB2EC26F09DB8FED70001C16B140EC0C8
:104597006F9BEF23F0648465986082010E00018EA3
:1045A7006F3C6A750E3B6E3D6A3E6A406A3F6A7AA7
:1045B700EF25F0C26F8A980001C2390F0B10092747
:1045C700EC22F00001C2510F0B27EC22F08A88126F
:1045D700000001CD6FCE6BCEC0C3F0CDC0C4F020BC
:1045E7000EA0EC28F0CE2B0F0ECE65F5D70F0CC220
:1045F7006F0001C16B3A0EC26105D02F0EC2650272
:10460700D0010EC16FC1C0C0F0C03112009BEC22B7
:10461700F00FEC26F039EC22F019EC24F047EC22ED
:10462700F003EC24F090EC22F057EF22F08E6B3C75
:104637006A740E3B6E3D6A3E6A406A3F6A7AEC25B1
:10464700F06092649401D0659465A41200FCD7C70A
:104657006F060E0001C725C06FC16BFF0EC123C3D4
:104667006B050EC26F9FEC25F0C051C86FC8511281
:104677000093949398939A48EC2FF0000E86EC22BF
:10468700F0BF0E0001C06F770EC16F69EC22F0A674
:10469700EF22F0C051C203F3CFC4F0F4CFC5F0C08E
:1046A70051C303F350C527C151C203F350C527C4F3
:1046B700C0C0F0C5C0C1F01200C06F0F0E0001C02E
:1046C700170A0EC06103D0C051300F1200090EC087
:1046D70065000C100EC061000CC051370F1200AB03
:1046E700A203D0AB98AB881200000E2424D96EDA4F
:1046F7006A020EDA22AECFDFFF242A3F0E246401BE
:10470700D0246A232A1200400E26600FD0400E28BC
:1047170024D96EDA6A020EDA22DF50AD6E282A3FFC
:104727000E286401D0286A262A12009D981200C319
:104737006BC46B0BD0100EC26F940EE82EFED7C25F
:104747002FFCD700D00001C34BC42BC051C35DC1A0
:1047570051C459F0E31200C16F080E0001C26FC3C4
:104767006BD890C135C335C36FD890C137C051C31B
:104777005D02E3C051C35FC22FF3D7C35112002EAE
:10478700C034F02FC035F008D034C0D9FF35C0DAB7
:10479700FF30C0DFFF344A352A3206D8A03306324D
:1047A70028F3E13328F1E11200C0C0C6F0C1C0C749
:1047B700F008D0C6C0D9FFC7C0DAFFC2C0DFFFC646
:1047C7004BC72BC407D8A0C507C429F3E1C529F1F6
:1047D700E112009D9A9D98480EB86E900EAB6E261A
:1047E7000EAC6E710EAF6E020EB06E276A286A406D
:1047F7000E266E246A256A236A9D8AAB8812009D5D
:104807009A9D98480EB86E900EAB6E260EAC6E71E0
:104817000EAF6E020EB06E276A286A400E266E240F
:104827006A256A236A9D8AAB881200CD6ACC6AD052
:104837000ECF6E200ECE6ECE50CFCFC0F00001C18E
:104847006BC0C0C1F0C06BC011856FC151866F9E30
:10485700909D8007EF22F09151D8A41200606A64FE
:104867006A160E626E9F0E666E7B0E646ED08EA504
:1048770084A384F28E01D0608660A6FDD7010E91D5
:104887006F010C0001C06B000EC025D96EDA6A02F9
:104897000EDA22DF6AC02B3F0EC065F5D7246A25E2
:1048A7006A236A9D98276A286A400E266E400C0183
:1048B700D0898E2350FDE09D9A000E2524D96EDA0B
:1048C7006A020EDA22DF500001C06F252A3F0E254B
:1048D7006401D0256A23069D8AC05112000001C0D9
:1048E7006F2650FEE09DB803D0C0C0ADFF0FD09D2E
:1048F70098400E2724D96EDA6A020EDA22C0C0DF8A
:10490700FF272A3F0E276401D0276A26069D8812B3
:1049170000396E36A404D02E6A3950DBEC29F03604
:10492700A205D0010E2E6E3950DBEC29F06A0E3944
:1049370024376E386A0F0E382237C0D9FF38C0DAED
:10494700FF36C0DFFF0F0CC16F0001C36BC05114EE
:10495700E0010EC26F03D0D890C037C22BC0AFFBA7
:10496700D7D890C337C051C15D03E3C051C15FC3FE
:1049770081D890C033C22FF4D7C35112005FEC2601
:10498700F0BB6B080EBD6FBC6BB76B4B0EB86FB946
:104997006BBA6BEDEC23F03A6A180E3A24D96EDA4B
:1049A7006A010EDA22DF6A3A2A3F0E3A64F5D71A0D
:1049B7006A196A1200C46FC4C0C2F00001C247C2BC
:1049C70047C250C219830BC219C26EC280140EE8C7
:1049D7002EFED7C282C2B2FED7C4500001C36FC237
:1049E7006BC350C225C06F000EC321C16F1200C137
:1049F7006F000EF2BE010E0001C26FC1C0A9FFC059
:104A0700C0A8FFA69EA69CA684F29E550EA76EAAD6
:104A17000EA76EA682A6B2FED7A6940001C2B10267
:104A2700D0F29E01D0F28E12006AA01BD015C0D919
:104A3700FF16C0DAFF800EDE1813E10FC0D9FF1092
:104A4700C0DAFF840EDE180CE115C0D9FF16C0DAF4
:104A5700FF0C0EDF6E15C0D9FF16C0DAFF000EDBA4
:104A67008E6A90659A1200C951CA1117E0010ECBE0
:104A77006F04D0D890C937CA37CB2BCAAFFAD7C97A
:104A870051C75DCA51C85904E3C951C75FCA51C864
:104A97005BD890CA33C933CB2FF2D7C7C0C7F0C88A
:104AA700C0C8F012000001C06BC051760FD96EDA92
:104AB7006ADF6AC02B020EC065F7D7C16B000EC153
:104AC70025D96EDA6A010EDA22DF6AC12B210EC1FF
:104AD70065F5D7C26B100EC225D96EDA6A010EDAF8
:104AE70022DF6AC22B090EC265F5D7090C3BC0410C
:104AF700F03CC042F0425004E07F0AD8A4120019EB
:104B0700D04150010A02E1C2EF24F0030AD8B412DF
:104B170000010A02E197EF29F0060AD8B4120077DC
:104B27000AD8B41200010AD8B41200070AD8A4019F
:104B37000A1200411C1200C56BC66BC251C3111B80
:104B4700E0010EC46F04D0D890C237C337C42BC35B
:104B5700AFFAD7D890C537C637C251C05DC351C168
:104B67005905E3C251C05FC351C15BC581D890C32A
:104B770033C233C42FEED7C5C0C0F0C6C0C1F012D0
:104B8700000001C16B23501FE05BEC24F0C26F0DE6
:104B97000EC2190BE1980E2924D96EDA6A010EDAD2
:104BA70022DF6A010EC16F296A0ED0C2510CE00ADA
:104BB7000EC21909E0980E2924D96EDA6A010EDAB5
:104BC70022C2C0DFFF292AC151120082A002D0826F
:104BD700B214D0662B000E672368236923370E664D
:104BE7001967116811691107E1A06B82B002D00142
:104BF7000E0FD0020E0DD0C06B0CD0140EA01906EC
:104C0700E1666B676B686B696BA06B01D0A02B03C8
:104C17000EC06FC051120092809282928492869247
:104C270098929A929C929E93909392939493969330
:104C37009A948094829484949C948E939C938E8966
:104C470088899A899C899E8A948A908A9A8A9C8A5A
:104C57009E8B948B9C0F015B915B835B855B875D70
:104C67009F5D9D1200020E211802E114EF33F0211F
:104C77006A8D511FE120EE01F01750D9261850DA3E
:104C870022080EDF6E20EE02F01750D9261850DAF0
:104C970022300EDE6E040EDD6E17C0D9FF18C0DAA3
:104CA700FF0C0EDF6E17C0D9FF18C0DAFF000EDB4E
:104CB7008E000C8D6B12000001B76B4B0EB86FB9ED
:104CC7006BBA6BBB6BBC6B080EBD6F976B1A0E365E
:104CD7006E010E8CEC24F01E0E366E020E8CEC2448
:104CE700F0000E2E6E400E2F6E050E306E400E3108
:104CF7006E020EF8EC2AF02EC07BF02FC07CF0007D
:104D070001796B7A6B206A1200ADC0B7F0AEC0B8FC
:104D1700F0AFC0B9F0B0C0BAF02E6A1B0E2F6EB755
:104D27000E306E316AB7C032F0B8C033F0B9C03454
:104D3700F0BAC035F065EC28F0FF0E2E243B6EFF6D
:104D47000E2F203C6EFF0E30203D6EFF0E31203EB1
:104D57006E3BC0AFFF3CC0B0FFEDEF23F015D0C1F5
:104D6700C0F6FFC2C0F7FFF86A070EF76403D00862
:104D770000F55005D0F6CFE1FFF7CFE2FFE750721D
:104D8700EC24F00001C14BC22BC1C0F6FFC2C0F733
:104D9700FFF86A070EF76403D00800F55005D0F650
:104DA700CFE1FFF7CFE2FFE7500009D9E133EF2268
:104DB700F0D46F0A0E0001C06FD451AFEC23F0306E
:104DC7000FD76F0A0EC06FD451A7EC24F0D46F0A27
:104DD7000EC06FD451AFEC23F0300FD66F0A0EC060
:104DE7006FD451A7EC24F0D46F0A0EC06FD451AF23
:104DF700EC23F0300FD56FD86BD50ECD6FCE6BD2BD
:104E0700C0CFF0D3C0D0F0C8EF27F002EE00F0809B
:104E17000EEE6AE806FDE101EE00F0E00EEE6AE84C
:104E270006FDE100EE60F0600EEE6AE806FDE100C7
:104E3700EE01F02D0EEE6AE806FDE1070EF66E4470
:104E47000EF76E000EF86E0900F5CFFBF00900F5BE
:104E5700CFFCF00900F5CFFDF05B905B92000EF8F8
:104E67006E0001EEEF2CF02B6A1E6A8F6B906B8D34
:104E77006B216A0FC0D9FF10C0DAFF7F0EDF16045F
:104E87000E0F1A0FC0D9FF10C0DAFF7F0EDF16040E
:104E97000E0F1A17C0D9FF18C0DAFF7F0EDF160CE6
:104EA7006A0D6A0E6A046A056A066A47EC2BF03CCB
:104EB7006A030E3B6E3D6A3E6A406A3F6A7AEC259A
:104EC700F023EF30F0C56F0001C451A30FD96EDA9C
:104ED7006A0A0EC06FC551AFEC23F0300FDF6E0AC0
:104EE7000EC06FC551A7EC24F0C56FC451A20FD9EE
:104EF7006EDA6A0A0EC06FC551AFEC23F0300FDFD0
:104F07006E0A0EC06FC551A7EC24F0C56FC451A13E
:104F17000FD96EDA6A0A0EC06FC551AFEC23F030B5
:104F27000FDF6E1200C76BC56BC66BAC9A8B9CC14B
:104F37006B0A0EC06F9BEC23F0AC8AC16B050EC0E9
:104F47006F9BEC23F0550EAD6EACA2FED7FC0EC1E5
:104F57006F7F0EC26FB2EC26F00001C16B280EC046
:104F67006F9BEC23F00ED0C4EC25F0000903E001A1
:104F77000EC76F07D0C54BC62B890EC55D130EC66E
:104F870059F6E2C751F0E11200CFC0D1F00F0ED1B0
:104F97006501D00F0CCDC0F6FFCEC0F7FFF86A074A
:104FA7000EF76403D00800F55005D0F6CFE1FFF700
:104FB700CFE2FFE7500009D8B41200D1C0C3F0D048
:104FC700C0C4F0CDC0F6FFCEC0F7FFF86A070EF7F2
:104FD7006403D00800F55005D0F6CFE1FFF7CFE224
:104FE700FFE750A0EC28F0CD4BCE2BD12BCFD72904
:104FF700D0C0C0D9FFC1C0DAFFDF500DE0C0C0D9B3
:10500700FFC1C0DAFFDF50C66FC2C0F6FFC3C0F7EB
:10501700FF0800F51812E0C0C0D9FFC1C0DAFFDFF2
:1050270050C66FC2C0F6FFC3C0F7FF0800F550C6F1
:105037005DC06FC16BD8A0C1071200C04BC12BC2A6
:105047004BC32BC407D8A0C507C429D2E1C529D0B3
:10505700E1C06BC16B120082A2FED7C0EC22F00147
:105067000E60EC22F0C290F29EF29EF29C0F015B62
:1050770081A08C878087828784F2868250825082C3
:1050870050F290A19C00F0030000F045EC24F0F2F0
:1050970096879087928794A09CF28E0FEC26F00358
:1050A700EC24F0F2A002D0F29003D00A0E00019D8A
:1050B7006F0F015B91000E60EC22F03CEC23F09641
:1050C700EF27F0366A376A386A396A325033103454
:1050D70010351029E0010E3A6E06D0D890323633DB
:1050E70036343635363A2A35AEF8D7D8903636378D
:1050F700363836393632502E5C33502F58345030CC
:10510700583550315809E332502E5E33502F5A34F8
:1051170050305A3550315A3680D890353234323380
:105127003232323A2EE2D736C02EF037C02FF0385F
:10513700C030F039C031F012000001CB6FC4517C90
:10514700EC22F00001C351080DF350DDEC22F08A88
:10515700980001CC6BC56BC669CB51C76FC86BD8BC
:1051670090C737C837D890C737C837D890C737C818
:1051770037FBC0C9F0FCC0CAF0C751C927C851CA1C
:1051870023CC51C927000ECA23C551C927C651CA06
:1051970023C9C0F6FFCAC0F7FF0800F5502DEC225F
:1051A700F00001CC2B070ECC65D5D78A88070C2ECB
:1051B700D0FFD7A6EC22F03E0ECD6F7F0ECE6F014B
:1051C7000ECF6FD06BC8EC27F08F0E0001CD6F7F2D
:1051D7000ECE6F020ECF6F010ED06FC8EC27F0A175
:1051E7000E0001CD6F7E0ECE6FCF6B020ED06FC853
:1051F700EC27F0010E000105D0200E916101D00EC1
:10520700D0020E9F6F0BD093EC2CF008D000019FBB
:1052170051D0E0010AF1E0030AF6E0CAD780B0F600
:10522700D700F012000401386B396B2AD00C8E1DA1
:10523700042EE138832CD00C8E2AD00C8E34BF0676
:10524700D034510F0B020DF350600F05D034510FBE
:105257000B020DF3500F0FD96EDA6ADECF2EF0DD99
:10526700CF2FF02EC0D9FF2FC0DAFFDFAE10D02E20
:10527700C0D9FF2FC0DAFFDFA40AD0010E386F07AD
:10528700D030511F0BD3E0010AD6E0030AD6E00C59
:10529700AE1200380E096E040E0A6E0C80020E0D57
:1052A7006E020CC0C0D9FFC1C0DAFFDF50C66FC2A3
:1052B700C0F6FFC3C0F7FF0800F5CFC8F0C6512CF2
:1052C700E0020EC027000EC123C851C61925E12FE1
:1052D700EEFFF0C051D926C151DA22DF50C76FC2A5
:1052E70029C46F000EC321C56FC4C0F6FFC5C0F740
:1052F700FF0800F5CFC8F0C75107E1C851C75DC027
:105307006FC16BD8A0C1071200020EC227000EC3DF
:1053170023C751C819F2E1C5D7C851C65DC06FC1CF
:105327006BD8A0C1071200040130511F0BE806011A
:10533700E012003039E832030BE80601E0120034CE
:10534700512BE0340529E01200D80E096E010E0A30
:105357006E0E6A080E0D6E0C800C8E080CD80E09A6
:105367006E010E0A6E0C8E120036C405F037C406A5
:10537700F0AD0E016E100E076E4D0E086E048E1204
:1053870000B70E096E0A6A0E6A070E0D6EC10E0C83
:105397006EC10C32510C8E12003151D6E0010ADE7B
:1053A700E0210AE2E0010AECE0030AF3E01200332D
:1053B7006E346A040E356E2E502F6E306AD8902FD9
:1053C7003630363350316E326AD89031363236D86D
:1053D70090313632362F50312630503222D8903124
:1053E700363236D89031363236315034263250354F
:1053F7002234C0D9FF35C0DAFFDF9E2E5005E133D6
:1054070050020DF350600F04D03350020DF3500FCC
:105417000FD96EDA6A34C0DEFF35C0DDFF34C0D97C
:10542700FF35C0DAFFDF9C20EE04F03450D9263573
:1054370050DA22DF8C12008F6B906B020E21181F3F
:10544700E120EE01F01750D9261850DA22080EDFB6
:105457006E20EE02F01750D9261850DA22380EDEE9
:105467006E040EDD6E17C0D9FF18C0DAFF480EDFD5
:105477006E17C0D9FF18C0DAFF000EDB8E000C0DC7
:10548700500401365D0E50375904E236C40DF0372B
:10549700C40EF0A9EC2DF020EE02F00F50D9261023
:1054A70050DA22380EDE6E040EDD6E0FC0D9FF1003
:1054B700C0DAFF480EDF6E0FC0D9FF10C0DAFF0059
:1054C7000EDB8E000C976B7B517C1109E07BC0D9FA
:1054D700FF7CC0DAFF010EDFAE000ECB6F01D0CB31
:1054E7006BCC6BCB51CC1134E120EE01F07B51D961
:1054F700267C51DA22C951DE5C08E220EE01F07BFE
:1055070051D9267C51DA22DF50C96F976B0FD040F3
:105517000E9725D96EDA6A050EDA229751C725E16B
:105527006E000EC821E26EDFCFE7FF972BC95197B8
:105537005DEEE3000EC06F400EC16F050EC26F40F7
:105547000EC36F020E96EC2BF0C0C07BF0C1C07C7F
:10555700F0975112000BD0C1C0F6FFC2C0F7FF0889
:1055670000F55072EC24F00001C14BC22BC1C0F60C
:10557700FFC2C0F7FF0800F550EEE1C66BC351C686
:1055870025D96EDA6ADF5072EC24F00001C62B02CF
:105597000EC665F4D7C351D96EDA6A030ED926DF72
:1055A7005072EC24F0040E0001C76F19D0C351C725
:1055B70025D96EDA6ADF50C56FC5390F0B60EC234A
:1055C700F072EC24F00001C351C725D96EDA6ADF07
:1055D700500F0B60EC23F072EC24F00001C72BC4D2
:1055E70051C75DE4E333EF22F0326E2E5005E0320F
:1055F70050020DF3500F0F04D03250020DF35060DC
:105607000FD96EDA6ADECF33F0DDCF34F0335034A2
:105617001003E12E6A2F6A120020EE02F03350D9F0
:10562700263450DA222FC0DEFF30C0DDFF20EE0126
:10563700F03350D9263450DA2231C0DFFF33C0D9D6
:10564700FF34C0DAFF400EDF1633C0D9FF34C0DAAB
:10565700FF000EDB8633C0D9FF34C0DAFFDB8E2EA6
:105667005005E03250020DF3500F0F04D0325002B4
:105677000DF350600FD96EDA6A040EDF1A33C02EAD
:10568700F034C02FF0040C04013039E832030B2A40
:10569700E012000C8E080E0001916F080C2C0E0909
:1056A7006E0A6A0C80010E0D6E0C8E010C3451BE11
:1056B7000F4A6E4AC009F00A6A0C80010E0D6E0C83
:1056C7008E010C0C8E3451BE0FD96EDA6A32C4DFEC
:1056D700FF12003C6A020E3B6E3D6A3E6A406A3F1B
:1056E7006A7AEF25F0315102E116EF29F0010A023B
:1056F700E13DEF35F0020A02E13DEF35F0060AC958
:10570700E0030A02E10EEF32F0010AE3E00F0AC6F6
:10571700E0010A02E1E6EF2BF0030AC8E0010AD133
:10572700E0070A1200C46F0001C05105E0C451022E
:105737000DF3500F0F04D0C451020DF350600FD971
:105747006EDA6ADECFC5F0DDCFC6F0C551C61103EC
:10575700E1C06BC16B120020EE02F0C551D926C61D
:1057670051DA22C1C0DEFFC2C0DDFF20EE01F0C565
:1057770051D926C651DA22C3C0DFFFC5C0D9FFC63B
:10578700C0DAFF400EDF16C5C0D9FFC6C0DAFF007A
:105797000EDB86C5C0D9FFC6C0DAFFDB8EC0510558
:1057A700E0C451020DF3500F0F04D0C451020DF3A2
:1057B70050600FD96EDA6A040EDF1AC5C0C0F0C692
:1057C700C0C1F0040C0C8E6B0E2E6E0F0E2F6E31B7
:1057D7006A306A336A020E326EC3EC23F02E6A0413
:1057E7000E2F6E316A306A336A300E326EC3EC2385
:1057F700F0608C436A43506A0FD96EDA6ADF6A43F6
:10580700506D0FD96EDA6ADF6A432A020E4364F2DB
:10581700D7BE0E2E6E2F6A316A306A336A020E3295
:105827006EC3EC23F0609C080E0F6E040E106E0022
:105837000E156E040E166E15C017F016C018F0324E
:10584700C42CF02C5004E1100E0001916F100C3C99
:105857006A010E3B6E2C0E3D6E3E6A406A010E3F9A
:105867006E7AEC25F0200E0001916F200C2D0E1F93
:105877006E2DC04BF0FD0E4B164BE1D8902D303FEF
:105887000B040D000EF324156E040EF420166E158E
:10589700C017F016C018F0040E171A15C0D9FF1656
:1058A700C0DAFFDF30E8320F0B0D0A02E036EF26D1
:1058B700F04D6A20EE02F01550D9261650DA22DE96
:1058C700CF4BF0DDCF4CF04BC0D9FF4CC0DAFF30E7
:1058D7000E4D24E16EE26A040EE222DFCFE7FF20DD
:1058E700EE02F01550D9261650DA22DE2A000EDD18
:1058F700224D2A070E4D64DDD720EE02F01550D950
:10590700261650DA22300EDE6E040EDD6E37EF27D4
:10591700F02D50FD0B040AD8B40AEC2EF012001F2C
:105927000E91651F0C60B21F0C1B500EE1180EC7BD
:105937006F010EC86F400EC96F66EC2AF0196E1919
:105947005003E0010E1B6E1C6A1B5010E0ACA20E48
:10595700D0180E1C24D96EDA6A010EDA22DF5072D3
:10596700EC24F01C2A19501C1801E11B6A23501C57
:10597700E00BEC22F0000918E03F0E1A6015D0008A
:10598700F05BEC24F0CD6F180E1A24D96EDA6A0199
:105997000EDA22CDC0DFFF1A2A180E1A24D96EDAC2
:1059A7006A010EDA22DF6A2A6A205002E08EEF319E
:1059B700F01A5002E18EEF31F0180E0001C06F01AE
:1059C7000EC16F1AC0C2F0B2EC22F002EC08F01A56
:1059D7006A8EEF31F00AEC23F03CEC23F071EC2EE9
:1059E700F02FEC24F0F28CF28E010EC16F2C0EC05A
:1059F7006F9BEC23F096EC27F0010EC16F2C0EC0C5
:105A07006F9BEC23F0000E72EC22F000019A6B0002
:105A17000E19EC22F0A6EC22F0DD0ECD6F7D0ECE36
:105A27006FCF6BD06BC8EC27F0340E0001CD6F7FC2
:105A37000ECE6FCF6B010ED06FC8EC27F0AF0E0004
:105A470001CD6F7D0ECE6FCF6B030ED06FC8EC27E5
:105A5700F0020E0001C16FBC0EC06F9BEC23F0116A
:105A6700D0FFD7DBEC28F0010E00019A6F15EC226E
:105A7700F008D067EC34F0040A04E19A6B000E19C1
:105A8700EC22F000019A51EDE0010AF3E0E9D700BA
:105A9700019251D8A41200010E926F9351D8A4120B
:105AA70000010E936F020E211814E120EE01F00F92
:105AB70050D9261050DA22DF6A0FC0D9FF10C0DA9A
:105AC700FF480EDF6E0FC0D9FF10C0DAFF000EDBF4
:105AD7008E000C2104D8A412008D6B20EE01F01566
:105AE70050D9261650DA22080EDF6E20EE02F01586
:105AF70050D9261650DA22300EDE6E040EDD6E15F2
:105B0700C0D9FF16C0DAFFDF6E15C0D9FF16C0DA9D
:105B1700FF000EDB8E010E8D6F20EE01F01750D9BE
:105B2700261850DA22080EDF6E20EE02F01750D941
:105B3700261850DA22300EDE6E040EDD6E17C0D93D
:105B4700FF18C0DAFF800EDF6E800C080E2E6E0E77
:105B5700500DE1080E0D5C0AE20DC02EF02B50022D
:105B6700E1010E03D02B0402E1020E2B6E2E500D25
:105B77005E000E0E5A20EE01F00F50D9261050DAB3
:105B8700222EC0DFFF380E00017F6F040E806F0CDE
:105B9700B03AD01BD009C0F6FF0AC0F7FFF86A7FFA
:105BA700C0D9FF80C0DAFF070EF76403D00800F5FD
:105BB7005005D0F6CFE1FFF7CFE2FFE750DF6E09E0
:105BC7004A0A2A00017F4B802B2E062E50E3E11252
:105BD7000009C0F6FF0AC0F7FFF86A7FC0D9FF8047
:105BE700C0DAFF070EF76403D00800F55005D0F6BA
:105BF700CFE1FFF7CFE2FFE750DF6E094A0A2A003D
:105C0700017F4B802B2E062E50E3E112000FC0D9E7
:105C1700FF10C0DAFF000EDFBC010E3F6E040E0F4F
:105C27001A080E91190AE1040132517F0B636E6362
:105C370050100ED8B4040E0001916F210438E120F2
:105C4700EE02F00F50D9261050DA22380EDE6E041D
:105C57000EDD6EA9EC2DF0020E2B180DE10FC0D949
:105C6700FF10C0DAFF040EDF6E0FC0D9FF10C0DAD5
:105C7700FF000EDB8E000C3F500DE10FC0D9FF1067
:105C8700C0DAFF480EDF6E0FC0D9FF10C0DAFF0081
:105C97000EDB8E000C0FC0D9FF10C0DAFF080EDF35
:105CA7006E0FC0D9FF10C0DAFF000EDB8E000C04A8
:105CB700AE12D0075008100EE020EE07F001D80A08
:105CC700D00500FA6EDE50FD6EDE50FE6EF850FF16
:105CD7006EFA501200049E216A1200A394676A6547
:105CE7006A6A6A6B0EC06F0F0EC16FC36BC26BC55A
:105CF7006B020EC46FD8EC23F0160E626E9F0E6611
:105D07006E7B0E646EC86BC851040D000EF324D968
:105D17006E040EF420DA6EDE6ADE6ADE6ADD6AC8B9
:105D27002B0B0EC865F0D7608C636A6098609C0582
:105D3700D065960C6A046A056A066A65B6F9D701E2
:105D47000E926F936F8F6B906B8E6BC86BC85102FF
:105D57000DF3500F0FD96EDA6ADE6ADD6AC8510299
:105D67000DF350600FD96EDA6ADE6ADD6AC8516AD0
:105D77000FD96EDA6ADF6AC8516D0FD96EDA6ADF3A
:105D87006AC82B020EC865E2D7080E0F6E040E1004
:105D97006E160E6A6E040E0401036F300E026F0852
:105DA7000E016F040E006F008F2C6A0001916B12B9
:105DB70000A394676A656A6A6A6B0E2E6E0F0E2FD0
:105DC7006E316A306A336A020E326EC3EC23F01604
:105DD7000E626E9F0E666E7B0E646E366A365004D8
:105DE7000D000EF324D96E040EF420DA6EDE6ADE9F
:105DF7006ADE6ADD6A362A0B0E3664F0D7608C637A
:105E07006A6098609C05D065960C6A046A056A0604
:105E17006A65B6F9D7010E0001926F936F8F6B9089
:105E27006B8E6B366A3650020DF3500F0FD96EDA50
:105E37006ADE6ADD6A3650020DF350600FD96EDAFA
:105E47006ADE6ADD6A36506A0FD96EDA6ADF6A3649
:105E5700506D0FD96EDA6ADF6A362A020E3664E2AF
:105E6700D7080E0F6E040E106E160E6A6E040E041F
:105E770001036F300E026F080E016F040E006F00F2
:105E87008F2C6A0001916B12008A888A8A8A845053
:105E97000EE82EFED78A94040E0001C26F1C0EE88E
:105EA7002EFED7C22FFCD700D08A848A98040E0012
:105EB70001C26F1C0EE82EFED7C22FFCD700D08A76
:105EC7009A040E0001C26F1C0EE82EFED7C22FFCEB
:105ED700D700D0AE0E27EC22F0D50E27EC22F080AB
:105EE7000E27EC22F0A80E27EC22F01F0E27EC223B
:105EF700F0D30E27EC22F0000E27EC22F08D0E27B0
:105F0700EC22F0140E27EC22F0400E27EC22F0A62C
:105F17000E27EC22F0A40E27EC22F0A00E27EC228D
:105F2700F0C00E27EC22F0DA0E27EC22F0420E2703
:105F3700EC22F0810E27EC22F07F0E27EC22F0D91D
:105F47000E27EC22F0F10E27EC22F0DB0E27EC22D5
:105F5700F0400E27EC22F0AF0E27EC22F08A8812D1
:105F670000894B8A2B89C0C7F08AC0C8F0CA6B0A60
:105F77000EC96F37EC25F0C751C811D8A412009588
:105F87008389C0C7F08AC0C8F0CA6B640EC96F376F
:105F9700EC25F0C751C811D8A41200958589C0C750
:105FA700F08AC0C8F0030ECA6FE80EC96F37EC2538
:105FB700F0C751C811D8A41200958789C0C7F08AC5
:105FC700C0C8F0EA0ECA6F600EC96F37EC25F0C77C
:105FD70051C811D8A41200874B882B958987C0C751
:105FE700F088C0C8F0CA6B3C0EC96F37EC25F0C704
:105FF70051C811D8A41200958B87C0C7F088C0C8B4
:10600700F0020ECA6FD00EC96F37EC25F0C751C822
:1060170011D8A41200958D87C0C7F088C0C8F005B5
:106027000ECA6FA00EC96F37EC25F0C751C811D83B
:10603700A41200958F896B8A6B876B886B1200603F
:10604700980CBE37D004AE0AD0020E216E00019024
:106057005102E11FEC2AF0936B926B120020EE01C4
:10606700F01750D9261850DA22080EDF6E20EE02FC
:10607700F01750D9261850DA22300EDE6E040EDDE6
:106087006E17C0D9FF18C0DAFF0C0EDF6E17C0D924
:10609700FF18C0DAFF000EDB8E0FC0D9FF10C0DA81
:1060A700FF040EDF6E0FC0D9FF10C0DAFF000EDB52
:1060B7008E000C040130AF0ED0010E216E00018F4F
:1060C7005102E11FEC2AF0936B926B1E50D8A41279
:1060D700004BEF2DF0020E216E20EE01F01750D984
:1060E700261850DA22080EDF6E20EE02F01750D97C
:1060F700261850DA22300EDE6E040EDD6E17C0D978
:10610700FF18C0DAFFDF6E17C0D9FF18C0DAFF002B
:106117000EDB8E0001936B926B1E5002E14BEF2D4D
:10612700F01200D2C0C7F0D3C0C8F0CA6B0A0EC9BC
:106137006F37EC25F0C751300FDA6FD2C0C0F0D3FC
:10614700C0C1F0C36B0A0EC26F9FEC25F0C0C0D26E
:10615700F0C1C0D3F0D2C0C7F0D3C0C8F0CA6B0A31
:106167000EC96F37EC25F0C751300FD96FD2C0C0B9
:10617700F0D3C0C1F0C36B0A0EC26F9FEC25F0C00D
:10618700C0D2F0C1C0D3F0D2C0C7F0D3C0C8F0CAE4
:106197006B0A0EC96F37EC25F0C751300FD86FD295
:1061A700C0C0F0D3C0C1F0C36B0A0EC26F9FEC250D
:1061B700F0C0C0D2F0C1C0D3F0D2C0C7F0D3C0C8BE
:1061C700F0CA6B0A0EC96F37EC25F0C751300FD7ED
:1061D7006FD2C0C0F0D3C0C1F0C36B0A0EC26F9FAD
:1061E700EC25F0C0C0D2F0C1C0D3F0D2C0C7F0D305
:1061F700C0C8F0CA6B0A0EC96F37EC25F0C751301B
:106207000FD66FDB6BD60ECD6FCE6BD4C0CFF0D56C
:10621700C0D0F0C8EF27F00001910507E160BA058B
:10622700D0656A64806488020E916F65B464A403C4
:10623700D065941AEC23F060A202D0A494120065F2
:10624700B064A006D0DCEC2EF0A384040E916F6539
:106257009065B864A803D0CEEC22F0659865AC14BD
:10626700D064AC0AD03C6A730E3B6E3D6A3E6A400E
:106277006A010E3F6E7AEC25F0659C1F5001E01F06
:10628700061F5002E14BEC2DF065BA64AA02D01844
:10629700EC25F065B264A20BD07F0E3C6E3B683DE7
:1062A7006A3E6A406A010E3F6E7AEC25F0676A041F
:1062B7000E0001916102D0A494040C64A629D04E6B
:1062C7006A65A626D061CF2DF02D30E832E8320F6F
:1062D7000B226E65962DB403D022506D0F02D0228B
:1062E700506A0FD96EDA6A0001DF70225003E13A73
:1062F700EC2CF00AD03C6A720E3B6E2D0E3D6E3EC2
:106307006A406A3F6A7AEC25F04E2A030E4E64D83B
:10631700D7A4941200A394000179517A1109E07966
:10632700C0D9FF7AC0DAFF010EDFAE000EC76F01DA
:10633700D0C76BC86BC751C81102E0A38412000312
:106347000E201801E1206A205002E1A38412000206
:106357000E201810E1010EC06F000EC16FC26FC38F
:106367006F020E96EC2BF0C0C079F0C1C07AF00333
:106377000E206E4ED020044CE1400E986502D0CA24
:106387006F02D098C0CAF0CA51985F000E706F05AF
:106397000E716FCAC0C9F0965110E021D073C0D9F1
:1063A700FF74C0DAFF70C0E1FF71C0E2FFDFCFE723
:1063B700FF704B712B734B742BC907C95112E0EE59
:1063C700D773C0D9FF74C0DAFF70C0E1FF71C0E2B4
:1063D700FFDFCFE7FF704B712B734B742BC907C9D6
:1063E70051EFE1985106E1400ECA19020ED8A403F5
:1063F7000E206E010EC06F000EC16F050EC26FCA70
:10640700C0C3F0020E96EC2BF0C0C079F0C1C07A81
:10641700F0A3841200800E04013019D8A41200C022
:106427000E0C6E71D06A0E096E7B0E0A6E0E6A1222
:106437000E0D6E120C32513DE13251020DBD0EF3BD
:1064470024F66E770EF420F76E0900F5CF09F00AEF
:1064570000F5CF0AF0020E09242E6E000E0A202F37
:106467006E2EC0F6FF2FC0F7FFF86A070EF764031A
:10647700D00800F55005D0F6CFE1FFF7CFE2FFE7F0
:10648700500D6E030E09242E6E000E0A202F6E2E5D
:10649700C0F6FF2FC0F7FFF86A070EF76403D008AE
:1064A70000F55005D0F6CFE1FFF7CFE2FFE7500E3A
:1064B7006E12000C6A1200030E326121D0325102B3
:1064C7000DB70EF324F66E770EF420F76E0900F57C
:1064D700CF09F00A00F5CF0AF009C0F6FF0AC0F7A6
:1064E700FFF86A070EF76403D00800F55005D0F6E9
:1064F700CFE1FFF7CFE2FFE7500D6E0E6A12000CF7
:106507006A12000C6A12003351010A8CE0030A92E6
:10651700E0010AD1E0F6D7CE51A50FD96EDA6ACCE1
:10652700C0C7F0CDC0C8F0CA6B0A0EC96F37EC25DB
:10653700F0C751300FDF6ECCC0C0F0CDC0C1F0C383
:106547006B0A0EC26F9FEC25F0C0C0CCF0C1C0CD66
:10655700F0CE51A40FD96EDA6ACCC0C7F0CDC0C84F
:10656700F0CA6B0A0EC96F37EC25F0C751300FDF41
:106577006ECCC0C0F0CDC0C1F0C36B0A0EC26F9F16
:10658700EC25F0C0C0CCF0C1C0CDF0CE51A30FD9DF
:106597006EDA6ACCC0C7F0CDC0C8F0CA6B0A0EC9A4
:1065A7006F37EC25F0C751300FDF6ECCC0C0F0CD90
:1065B700C0C1F0C36B0A0EC26F9FEC25F0C0C0CC00
:1065C700F0C1C0CDF0CE51A20FD96EDA6ACCC0C7E8
:1065D700F0CDC0C8F0CA6B0A0EC96F37EC25F0C7FB
:1065E70051300FDF6ECCC0C0F0CDC0C1F0C36B0A15
:1065F7000EC26F9FEC25F0C0C0CCF0C1C0CDF0CE6D
:1066070051A10FD96EDA6ACCC0C7F0CDC0C8F0CAA5
:106617006B0A0EC96F37EC25F0C751300FDF6E12CA
:106627000020EE01F01550D9261650DA22DF50402F
:106637006E4050055C000E065802E205C040F0406F
:1066470050055E000E065A3F6A0DD0380E3F24D91A
:106657006EDA6A040EDA220150E16EE26ADFCFE7F2
:10666700FF012A3F2A40503F5CF0E30550061032F5
:10667700E020EE01F01750D9261850DA22080EDF75
:106687006E20EE02F01750D9261850DA22380EDEA7
:106697006E040EDD6E15C0D9FF16C0DAFFDFBC0D24
:1066A700D017C0D9FF18C0DAFF480EDF6E17C0D960
:1066B700FF18C0DAFF000EDB8E000C17C0D9FF18D9
:1066C700C0DAFF080EDF6E17C0D9FF18C0DAFF0067
:1066D7000EDB8E000C20EE01F01750D9261850DA89
:1066E70022080EDF6E20EE02F01750D9261850DA76
:1066F70022300EDE6E040EDD6E17C0D9FF18C0DA29
:10670700FFDF6E17C0D9FF18C0DAFF000EDB8E0758
:106717005008100EE020EE07F001D80AD00500FA65
:106727006EDE50FD6EDE50FE6EF850FF6EFA5012B0
:1067370000049E1E50D8B44BEC2DF01200DE510120
:10674700E1BFD0200E9E65B9D0E16BE26BC16B0A49
:106757000EC06F9BEC23F0200EE36F030EDEEC24DC
:10676700F07D51C0277E51C123D890C131DF6FC062
:10677700317D6FDFC07EF0E307E351EFE1C16B0AC4
:106787000EC06F9BEC23F0200EE46F020EDEEC24AC
:10679700F0E151C027E251C123D890C131DF6FC06A
:1067A70031E16FDFC0E2F0E407E451EFE1E1512BA3
:1067B700EC23F0836F846B9E6BA6EC22F01B0ECD4F
:1067C7006F7D0ECE6FCF6BD06BC8EC27F0AD0E0090
:1067D70001CD6F7E0ECE6FCF6B010ED06FC8EC2749
:1067E700F00A0E0001D26F010ED36F9B51DCEC262D
:1067F700F0EB0E0001CD6F7D0ECE6FCF6B020ED08A
:106807006FC8EC27F07DC0D2F07EC0D3F0030E0036
:1068170001D46F020ED56F95EC30F00C0E0001D24B
:106827006F020ED36F8351DCEC26F06F0E0001CDA3
:106837006F7D0ECE6FCF6B030ED06FC8EC27F0566F
:10684700EC25F01DEC22F09B6F9B5103E1050E9B9D
:106857006F05D0DF0E9B6502D0CE0E9B27C46B9BC6
:106867005166EC27F0200EA46F7DC0CCF07EC0CD22
:10687700F0040ECE6F8FEC32F0090EC46F835166B1
:10688700EC27F000F0AF0E0001CD6F7B0ECE6F0F3F
:106897000ECF6F010ED06FC8EC27F00C0E0001C1B0
:1068A7006F7F0EC26FA10EC36F0C0EC46FAEEC2AC2
:1068B700F0070E00019D6F080E02D09E2B0E0E9C56
:1068C7006F2FEC28F0FFD70001F26BF36BF66B80AC
:1068D700A002D0040EFD6F95A107D00DEC22F0B4F5
:1068E700EC2FF0955140EC22F0E9EC25F0F76FF72B
:1068F7000504E19D6B010EF36F06D0020EF7190335
:10690700E19D6B010EF66FC4EC25F0000903E00171
:106917000EFA6F01D0FA6B060E9C1903E0020E9C6B
:10692700193BE1040E996538D0F46BF56BC16B0A1E
:106937000EC06F9BEC23F0200EF86F030EDEEC24E5
:10694700F07D51C0277E51C123D890C131F06FC06F
:10695700317D6FF0C07EF0F807F851EFE1C16B0AA7
:106967000EC06F9BEC23F0200EF96F020EDEEC24B5
:10697700F0F451C027F551C123D890C131F06FC051
:1069870031F46FF0C0F5F0F907F951EFE1F4512B4D
:10699700EC23F0836F846B996B9D5160E0090E9D2A
:1069A700655DD0010EF26F9D6B59D0FFD7A6EC2223
:1069B700F0160ECD6F7F0ECE6F010ECF6FD06BC866
:1069C700EC27F0620E0001CD6F7F0ECE6F020ECF67
:1069D7006F010ED06FC8EC27F00A0E0001CD6F7D56
:1069E7000ECE6FCF6B030ED06FC8EC27F00001946B
:1069F7006B020E28D0F6C0E5F0FA510DEC38F00026
:106A07000936E0A6EC22F03D0ECD6F7D0ECE6FCF9E
:106A17006BD06BC8EC27F04E0E0001CD6F7D0ECE0C
:106A27006FCF6B020ED06FC8EC27F0E80E0001CDD8
:106A37006F7C0ECE6FCF6B030ED06FC8EC27F000C4
:106A4700019C6B030EFD6F13D0F6C0DCF0FAC0DDBE
:106A5700F0F2C0DEF0F351A2EC33F009D0FD5101A2
:106A67000AA5E0030AC7E0010AEFE0070A9EE1FD75
:106A7700511200040132050BE130511F0B08E10CE4
:106A87008E030E311903E1010E1D6E01D01D6A320E
:106A970051D8A4120030511F0B020AD8A412003497
:106AA700510F0BD8B4120034510F0B436E030E4332
:106AB70060030C200E00019119D8A412000C8E045B
:106AC7000134BF11D034510F0B020DF350600FD9B1
:106AD7006EDA6ADECF48F0DDCF49F034510F0B4351
:106AE7006E43506D0F10D034510F0B020DF3500F42
:106AF7000FD96EDA6ADECF48F0DDCF49F034510F97
:106B07000B436E43506A0FD96EDA6ADF50476E4700
:106B1700B002D0489401D0488434BF06D034510F16
:106B27000B020DF350600F05D034510F0B020DF31C
:106B3700500F0FD96EDA6A48C0DEFF49C0DDFF0388
:106B47000E311923E148C0D9FF49C0DAFFDFAE1182
:106B5700D034BF06D034510F0B436E43506D0F0531
:106B6700D034510F0B436E43506A0FD96EDA6A0067
:106B770001DF8248C0D9FF49C0DAFF000EDB844835
:106B8700C0D9FF49C0DAFFDB8E000C040E481A4853
:106B9700C0D9FF49C0DAFFDFAE19D048C0D9FF49D5
:106BA700C0DAFF7F0EDF1648C0D9FF49C0DAFF0001
:106BB7000EDB8C3C6A050E3B6E48C03DF049C03E7B
:106BC700F0406A020E3F6E7AEC25F006D048C0D935
:106BD700FF49C0DAFF000EDB8C040E481A47B206E5
:106BE700D048C0D9FF49C0DAFFDFAE25D004013451
:106BF700BF06D034510F0B436E43506D0F05D03491
:106C0700510F0B436E43506A0FD96EDA6A0001DFEA
:106C17009248C0D9FF49C0DAFF3B0EDF163C6A0530
:106C27000E3B6E48C03DF049C03EF0406A020E3F41
:106C37006E7AEC25F006D048C0D9FF49C0DAFF3B91
:106C47000EDF16040134510F0B436E446A6A0E437C
:106C570024456E0F0E4420466E45C0D9FF46C0DA64
:106C6700FFFE0EDF16FE0CD00EDC6FC1D1250EE441
:106C77001909E0CCC0D9FFCDC0DAFFE4C0DFFFCCF3
:106C87004BCD2BB5D1E26BE36BE16B03D0E185CE46
:106C97004BCF2BCEC0F6FFCFC0F7FF0800F5503023
:106CA7000AF5E0CEC0F6FFCFC0F7FF0800F550FBAE
:106CB700EC22F001E287D0E26BE36BE2C0C0F0E3C5
:106CC700C0C1F0C36B0A0EC26F4DEC23F0C0C0E227
:106CD700F0C1C0E3F0D00ED46FD569CEC0F6FFCFB8
:106CE700C0F7FF0800F550D66FD76BD451D627D51C
:106CF70051D723D651E227D751E323CE4BCF2BCE03
:106D0700C0F6FFCFC0F7FF0800F550FBEC22F05AA2
:106D1700E3D4D7E18F6ED0DC51D96EDA6ADECFDAF1
:106D2700F0DDCFDBF0020EDC27DA51DB1104E1BF27
:106D37000EDA6F7F0EDB6FDD6BDE6B02D0DD4BDEB5
:106D47002BDD51DA25D46FDE51DB21D56FD4C0F6A8
:106D5700FFD5C0F7FF0800F550F1E1E251DD5DE333
:106D670051DE5905E2DD51E25FDE51E35B0BD0E214
:106D77006BE36B08D0CCC0D9FFCDC0DAFF200EDFA4
:106D87006ECC4BCD2BE207D8A0E307E229F3E1E372
:106D97002910E0F0D7DAC0F6FFDBC0F7FFCCC0D987
:106DA700FFCDC0DAFF0800F5CFDFFFDA4BDB2BCCD6
:106DB7004BCD2BDD07D8A0DE07DD29ECE1DE29016D
:106DC700E116D1E8D7CEC0F6FFCFC0F7FFCE4BCF45
:106DD7002B0800F5CFE4F0E45101E115D1580A99E9
:106DE700E03C0A07E00D0A05E01A0A95E00B0A9154
:106DF700E0FED0E1BF12D0DC51D96EDA6ADECFDF18
:106E0700F0DDCFE0F0020EDC27E0AF3DD0030EE16E
:106E170013DF6DE01FD8B0E02B36D0DC51D96EDA26
:106E27006ADECFDFF0DDCFE0F0020EDC272CD001E9
:106E37000EE46FE451020DA50EF324F66E770EF4FF
:106E470020F76E0900F550DF5D0900F550E0592085
:106E5700E3E42B050EE4191CE0ECD7010EE46FE424
:106E670051020DAF0EF324F66E770EF420F76E097C
:106E770000F550DF5D0900F550E0590AE3E42B0403
:106E87000EE41906E0ECD7E151800BD1E0800AE56A
:106E9700E0E251E31108E0E1C0D4F0030ED4170398
:106EA700E0E207D8A0E307800EE4BF7F0ED46FE2CD
:106EB70051E45DE351800AD45907E2E451E25F00EF
:106EC7000EE4BFFF0EE35B02D0E26BE36BE1A51CB0
:106ED700D0E1C0D4F0030ED41708E0CCC0D9FFCD61
:106EE700C0DAFF2D0EDF6ECC4BCD2BE251E3112A1A
:106EF700E0CCC0D9FFCDC0DAFF300EDF6ECC4BCD72
:106F07002BE207D8A0E307F1D7E251E3110EE0CC5B
:106F1700C0D9FFCDC0DAFF200EDF6ECC4BCD2BE200
:106F270007D8A0E307E251E311F2E1E1C0D4F0038F
:106F37000ED41708E0CCC0D9FFCDC0DAFF2D0EDF85
:106F47006ECC4BCD2BE4C0D9F04FD0D951020DA553
:106F57000EF324F66E770EF420F76E0900F5CFC214
:106F6700F00A00F5CFC3F0DFC0C0F0E0C0C1F09F6A
:106F7700EC25F0C0C0C7F0C1C0C8F0CA6B0A0EC983
:106F87006F37EC25F0C751300FE46F26D0DFC0C054
:106F9700F0E0C0C1F0D951020DAF0EF324F66E77C1
:106FA7000EF420F76E0900F5CFC2F00A00F5CFC343
:106FB700F09FEC25F0C0510F0BD86FD70ED825F6F0
:106FC7006EF76A7C0EF7220800F5CFE4F005D0E1F2
:106FD70051800BBBE0800ADAE0CCC0D9FFCDC0DA24
:106FE700FFE4C0DFFFCC4BCD2BD907D929F0E1CE89
:106FF700C0F6FFCFC0F7FFCE4BCF2B0800F5CFE48D
:10700700F0E45101E033D6CCC0D9FFCDC0DAFFDFC1
:107017006A000CEF6F0001EA6BE55101E187D311BC
:107027000E946F82A2FED782D3FFD7899E899CC414
:10703700EC25F00009FCE1C50EC16F7E0EC26FB2F0
:10704700EC26F0A6EC22F0C90ECD6F7E0ECE6FCFE8
:107057006BD06BC8EC27F00001C16B640EC06F9B4F
:10706700EC23F0010E4CD2EF5101E195D39A0EC0FB
:107077006F010EC16FF70EC26F7F0EC36FC56B0432
:107087000EC46FFBEC27F0C051C11118E14A0EC1C5
:107097006F7C0EC26FB2EC26F0A6EC22F0B90ECDD3
:1070A7006F7E0ECE6FCF6BD06BC8EC27F00001C19F
:1070B7006B500EC06F9BEC23F0020E21D2A6EC2280
:1070C700F0980ECD6F010ECE6FCF6B030ED06FC849
:1070D700EC27F0030E0001C16FE80EC06F9BEC2395
:1070E700F0946B59D3EF5101E156D3980EC06F015D
:1070F7000EC16FCB0EC26F7D0EC36F55EC29F0C06A
:1071070051C111EEE1B10EC16F7B0EC26FB2EC2619
:10711700F0A6EC22F0DD0ECD6F7E0ECE6FCF6BD0DA
:107127006BC8EC27F00001C16B500EC06F9BEC23BE
:10713700F0030EE5D1EF5101E12ED3980EC06F0198
:107147000EC16FCB0EC26F7D0EC36F55EC29F0C019
:1071570051C111C6E1800EC16F7B0EC26FB2EC2622
:10716700F0A6EC22F0D10ECD6F7E0ECE6FCF6BD096
:107177006BC8EC27F00001C16B500EC06F9BEC236E
:10718700F0040EBDD1EF5101E106D3980EC06F0197
:107197000EC16FCB0EC26F7D0EC36F55EC29F0C0C9
:1071A70051C1119EE18F0EC16F7D0EC26FB2EC26E9
:1071B700F0A6EC22F0A70ECD6F7F0ECE6FCF6BD06F
:1071C7006BC8EC27F00001C16B500EC06F9BEC231E
:1071D700F0050E95D1EF5101E1DED2980EC06F0197
:1071E7000EC16FCB0EC26F7D0EC36F55EC29F0C079
:1071F70051C11101E075D77F0EC16F7D0EC26FB20D
:10720700EC26F0A6EC22F0470ECD6F7F0ECE6FCFA7
:107217006BD06BC8EC27F00001C16B500EC06F9BA1
:10722700EC23F0070E6CD1EF5101E1B5D2980EC0F7
:107237006F010EC16FCB0EC26F7D0EC36F55EC2968
:10724700F0C051C11101E04CD77B0EC16F7C0EC25B
:107257006FB2EC26F0A6EC22F0970ECD6F7F0ECE24
:107267006FCF6BD06BC8EC27F00001C16B500EC01D
:107277006F9BEC23F08B6B8C6B060E41D1EF5101AA
:10728700E18AD2980EC06F010EC16FCB0EC26F7D1F
:107297000EC36F55EC29F0C051C11101E021D78C05
:1072A700BF0CD08C5103E1310E8B5D07E38CBF0916
:1072B700D08C5103E1340E8B5D04E39B0EE86F7DA8
:1072C7000E03D0DA0EE86F7D0EE96F580ECC6F0112
:1072D7000ECD6FAB0ECE6F7C0ECF6F8BC0D0F08C08
:1072E700C0D1F0E8C0D2F0E9C0D3F037EC36F0589F
:1072F7000EC16F010EC26FB2EC26F0A6EC22F0E9C8
:107307000ECD6F7F0ECE6FCF6BD06BC8EC27F06AB8
:107317000E0001CD6F010ECE6FCF6B010ED06FC87F
:10732700EC27F00001C16B500EC06F9BEC23F08B74
:107337004B8C2B8CBFA1D78C5103E1480E8B5D9CE6
:10734700E3080EDDD0EF5101E126D2980EC06F01A0
:107357000EC16FCB0EC26F7D0EC36F55EC29F0C007
:1073670051C11101E0BDD6C16BC80EC06F9BEC23A4
:10737700F0600EC16F7E0EC26FB2EC26F0A6EC2253
:10738700F0640ECD6F7E0ECE6FCF6BD06BC8EC273F
:10739700F00001C16B500EC06F9BEC23F0090EAFDC
:1073A700D0EF5101E1F8D1980EC06F010EC16FCB3C
:1073B7000EC26F7D0EC36F55EC29F0C051C111018C
:1073C700E08FD6A6EC22F0F90ECD6F7C0ECE6FCFF4
:1073D7006BD06BC8EC27F00001C16B500EC06F9BE0
:1073E700EC23F00A0E8CD0EF5101E1D5D1980EC0F5
:1073F7006F010EC16F500EC26F7F0EC36F55EC2920
:10740700F0C051C1111AE1630EC16F7C0EC26FB299
:10741700EC26F0A6EC22F0F00ECD6F7F0ECE6FCFEC
:107427006BD06BC8EC27F00001C16B960EC06F9B49
:10743700EC23F00B0E946F898CAED1A6EC22F02CC6
:107447000ECD6F7D0ECE6FCF6BD06BC8EC27F000E3
:1074570001946B010EC16FF40EC06F9BEC23F023F8
:10746700D0EF5101E198D1980EC06F010EC16FCBDB
:107477000EC26F7D0EC36F55EC29F0C051C11115B7
:10748700E1A6EC22F0BF0ECD6F7D0ECE6FCF6BD095
:107497006BC8EC27F00B0E0001C16FB80EC06F9BD5
:1074A700EC23F00C0E946F898E76D1A6EC22F02097
:1074B7000ECD6F7F0ECE6FCF6BD06BC8EC27F00071
:1074C70001946B010EC16FF40EC06F9BEC23F08922
:1074D7009C62D1898E899CA6EC22F09F0ECD6F7F8E
:1074E7000ECE6FCF6BD06BC8EC27F00001C16B508D
:1074F7000EC06F9BEC23F08B6B8C6B0D0EBDD09485
:107507006F4AD18B4B8C2BC16B640EC06F9BEC23E6
:10751700F08CBF41D18C5104E1150E8B5D01E23B2C
:10752700D18B6B8C6BEB6BEC6BC16B0A0EC06F9BDB
:10753700EC23F0200EED6FED5110E0030EDEEC248E
:10754700F07D51C0277E51C123D890C131E66FC06D
:10755700317D6FE6C07EF0ED07EED7C16B0A0EC036
:107567006F9BEC23F0200EEE6FEE5110E0020EDE63
:10757700EC24F0EB51C027EC51C123D890C131E680
:107587006FC031EB6FE6C0ECF0EE07EED7EB512B97
:10759700EC23F0836F846B996B814B822BA6EC22D3
:1075A700F05F0ECD6F7D0ECE6FCF6BD06BC8EC2723
:1075B700F0DB0E0001CD6F7F0ECE6FCF6B010ED0CB
:1075C7006FC8EC27F0C60E0001CD6F7F0ECE6FCFD0
:1075D7006B020ED06FC8EC27F0AF0E0001CD6F7BAA
:1075E7000ECE6F0C0ECF6F020ED06FC8EC27F07D5A
:1075F700C0D2F07EC0D3F0060E0001D46F010ED5C5
:107607006F95EC30F083C0D2F084C0D3F0060E0043
:1076170001D46F020ED56F95EC30F0E20E0001CD6C
:107627006F7F0ECE6FCF6B030ED06FC8EC27F08144
:10763700C0D2F082C0D3F0060E0001D46F030ED57E
:107647006F95EC30F0580E0001CC6F010ECD6F93A3
:107657000ECE6F7C0ECF6F83C0D0F084C0D1F07D8B
:10766700C0D2F07EC0D3F037EC36F0580EC16F01B0
:107677000EC26FB2EC26F00E0E000141D7D40ECD2C
:107687006F7F0ECE6FCF6B030ED06FC8EC27F081E4
:10769700C0D2F082C0D3F0060E0001D46F030ED51E
:1076A7006F95EC30F00001C16B500EC06F9BEC235F
:1076B700F00F0E25D7EF516FE0980EC06F010EC186
:1076C7006FC40EC26F7D0EC36F55EC29F0C051C158
:1076D7001162E1CD0ECD6F7F0ECE6FCF6B030ED053
:1076E7006FC8EC27F081C0D2F082C0D3F0060E003D
:1076F70001D46F030ED56F95EC30F0FFD6010EEA7B
:107707006FC16B500EC06F9BEC23F045D0000EC0CD
:107717006BFBEC24F082B002D082A2FCD70001C13F
:107727006B280EC06F9BEC23F0FF0035D00001944F
:107737005101E17BD4010A01E196D4030A01E1D2A8
:10774700D4010A01E1F7D4070A01E11CD5010A01B6
:10775700E141D5030A01E192D5010A01E164D50FA0
:107767000A01E1F0D5010A01E11BD6030A01E13B59
:10777700D6010A01E175D6070A01E1ABD6010A0174
:10778700E1C0D6030A01E17AD7010A94E01F0AB6DD
:10779700E0010ABCE049D40001EA511200000100EF
:1077A7000A006400E8031027010010000001001020
:1077B7007C7B027B367BBF7A000000000000000064
:1077C7000000005F0000000000000300030000004D
:1077D700643C26643C2624002649497F49493200F7
:1077E700422512082452210020504E5522582800C5
:1077F700000000030000000000001C224100000000
:1078070000000041221C00000015150E0E15150082
:107817000008083E08080000000000503000000083
:1078270000080808080800000000004000000000E9
:107837004020100804020100003E4141413E000083
:107847000000417F4000000000426151496E000086
:107857000022414949360000001814127F10000029
:107867000027494949710000003C4A494870000017
:10787700004321110D030000003649494936000035
:1078870000060949291E0000000000120000000040
:10789700000000523000000000000814142200000D
:1078A7000014141414141400000022141408000007
:1078B70000020159050200003E415D554D512E0061
:1078C700407C4A094A7C4000417F49494949360082
:1078D7001C22414141412200417F414141221C007C
:1078E700417F49495D416300417F49091D0103000B
:1078F7001C224149493A0800417F0808087F410096
:107907000041417F41410000304041413F010100BA
:10791700417F080C12614100417F414040406000B7
:10792700417F420C427F4100417F420C117F0100A1
:107937001C22414141221C00417F490909090600D7
:107947000C12212161524C00417F09091969460037
:1079570066494949494933000301417F4101030011
:10796700013F4140413F0100010F3140310F01000C
:10797700011F6114611F0100414136083641410072
:1079870001034478440301004361514945436100C1
:1079970000007F4141000000010204081020400060
:1079A700000041417F0000000004020101020400C1
:1079B700004040404040400000010200000000003D
:1079C70000344A4A4A3C400000413F48484830009A
:1079D700003C42424224000000304848493F4000F2
:1079E700003C4A4A4A2C00000000487E4909000032
:1079F70000264949493F0100417F48044478400037
:107A07000000447D40000000000040443D000000AD
:107A1700417F1018244242000040417F404000004F
:107A2700427E027C027E4000427E4402427C40004D
:107A3700003C4242423C000000417F4909090600E0
:107A470000060909497F410000427E440202040002
:107A570000644A4A4A36000000043F4444200000BC
:107A670000023E4040227E40020E3240320E0200AB
:107A7700021E6218621E020042621408146242006B
:107A87000143453805030100004662524A46620039
:107A970000000836410000000000007F00000000E1
:107AA70000000041360800000018080810101800F0
:107AB700AA55AA55AA55AA5509024300020100C0B2
:107AC700320904000001020201000524001001042C
:107AD700240202052406000105240100010705818F
:107AE7000308000209040100020A0000000705025A
:107AF700024000000705820240000034034D006980
:107B070000630072006F0063006800690070002066
:107B17000054006500630068006E006F006C006F22
:107B27000067007900200049006E0063002E0034D2
:107B3700034300440043002000520053002D00324D
:107B47000033003200200045006D0075006C0061B5
:107B570000740069006F006E002000440065006D2E
:107B6700006F001201000202000008D8040A00009A
:107B77000101020001040309046D61632073657448
:107B8700206E776B736B657920324237453135311B
:107B9700363238414544324136414246373135382D
:107BA700383039434634463343006D61632073658B
:107BB7007420617070736B657920324237453135B7
:107BC7003136323841454432413641424637313504
:107BD700383830394346344633430073797320735A
:107BE70065742070696E646967204750494F31306A
:107BF70020300D0A00737973207365742070696EE5
:107C0700646967204750494F313120300D0A0073AE
:107C17007973207365742070696E646967204750B3
:107C2700494F313020310D0A007379732073657421
:107C37002070696E646967204750494F31312031A0
:107C47000D0A006D61632073657420646576616455
:107C57006472204142434430303031006D6163200B
:107C6700747820756E636E66203120303030303086
:107C7700303030006D616320736574207278322074
:107C87003820393233333030303030006D61632083
:107C9700747820756E636E66203120253034582540
:107CA700303458006D6163207365742063682073F6
:107CB70074617475732025642025730073797320AC
:107CC700736C656570203939393939393939390073
:107CD70030313233343536373839414243444546FB
:107CE7000020285331292020202020202853322902
:107CF7002000576169742061636365707465642E41
:107D07002E2E00526552756E205077725473743C54
:107D170053323E004973737565205065726F64690D
:107D270063205458006D6F746557616974416363CC
:107D37006570746564004D6F62696C65204D6F7482
:107D470065202D417070004E61766967617465200A
:107D57002053656C65637400202053656E736F72E2
:107D67002044617461202000284E4156292020209C
:107D7700202853454C2920006D61632073657420CA
:107D870073796E63203334006D61632073657420EB
:107D9700616472206F6666004275696C6420446195
:107DA70074652F54696D65002020206275696C64C5
:107DB700203030362020200077616974206D6163A0
:107DC7005F74785F6F6B006D61632073657420610A
:107DD7006472206F6E005363726970747220496F0A
:107DE700542D58004C3A20202020202020543A209F
:107DF700006D6163207365742064722030006D61CB
:107E070063207365742064722031006D6163207391
:107E170065742064722032006D616320736574207D
:107E270064722033006D616320736574206472206F
:107E370034006D6163207365742064722035006DB2
:107E47006163207365742064722036006D6163205E
:107E57007365742064722037006D6163206A6F69EF
:107E67006E2061627000427574746F6E2054657382
:107E7700743A00427574746F6E3120504153530049
:107E8700427574746F6E32205041535300507265BF
:107E9700737320427574746F6E00555342204861A6
:107EA7006E646C6572004F6E20506F727420233AB7
:107EB7002000736574206465766164647200737969
:107EC70073206765742076657200736574206E771A
:107ED7006B736B65790073657420617070736B6584
:107EE70079004D61792020352032303136004275D6
:107EF70074746F6E204641494C00436F6D6D20547A
:107F07006573743A00726164696F20747820004D5C
:107F17004F5445204D6F6465006D6F7465496E69F8
:107F27005478004C454420546573743A00204465E6
:107F3700763A2053312000434443204D6F64650057
:107F47007365742073796E6300616363657074652C
:107F570064006D61632073617665005374617274A8
:107F6700696E67004D6F54652076202E0031363AD2
:107F770030333A313600524620546573743A004123
:107F87004443205465737400436F6D6D616E6400E4
:107F9700736574207278320072657374696E670056
:107FA700736574206164720054656D7020203D0014
:107FB7004C69676874203D00286E756C6C29005405
:107FC700656D70203A00506B74732D3A00506B74D6
:107FD700732F3A004C696768743A00506B74737C6E
:107FE7003A0073657420636800696E6920747800CD
:087FF70032393033007A00003A
:020000040020DA
:08000000FFFFFFFFFFFFFFFF00
:020000040030CA
:0E00000021081F3EFFD181FF0FC00FE00F400F
:00000001FF
